{
  "_format": "hh-sol-artifact-1",
  "contractName": "TokenFaucet",
  "sourceName": "contracts/TokenFaucet.sol",
  "abi": [
    {
      "inputs": [
        {
          "internalType": "address",
          "name": "tokenAddress",
          "type": "address"
        }
      ],
      "stateMutability": "nonpayable",
      "type": "constructor"
    },
    {
      "anonymous": false,
      "inputs": [
        {
          "indexed": false,
          "internalType": "bool",
          "name": "paused",
          "type": "bool"
        }
      ],
      "name": "FaucetPaused",
      "type": "event"
    },
    {
      "anonymous": false,
      "inputs": [
        {
          "indexed": true,
          "internalType": "address",
          "name": "user",
          "type": "address"
        },
        {
          "indexed": false,
          "internalType": "uint256",
          "name": "amount",
          "type": "uint256"
        },
        {
          "indexed": false,
          "internalType": "uint256",
          "name": "timestamp",
          "type": "uint256"
        }
      ],
      "name": "TokensClaimed",
      "type": "event"
    },
    {
      "inputs": [],
      "name": "COOLDOWN_TIME",
      "outputs": [
        {
          "internalType": "uint256",
          "name": "",
          "type": "uint256"
        }
      ],
      "stateMutability": "view",
      "type": "function"
    },
    {
      "inputs": [],
      "name": "FAUCET_AMOUNT",
      "outputs": [
        {
          "internalType": "uint256",
          "name": "",
          "type": "uint256"
        }
      ],
      "stateMutability": "view",
      "type": "function"
    },
    {
      "inputs": [],
      "name": "MAX_CLAIM_AMOUNT",
      "outputs": [
        {
          "internalType": "uint256",
          "name": "",
          "type": "uint256"
        }
      ],
      "stateMutability": "view",
      "type": "function"
    },
    {
      "inputs": [],
      "name": "admin",
      "outputs": [
        {
          "internalType": "address",
          "name": "",
          "type": "address"
        }
      ],
      "stateMutability": "view",
      "type": "function"
    },
    {
      "inputs": [
        {
          "internalType": "address",
          "name": "user",
          "type": "address"
        }
      ],
      "name": "canClaim",
      "outputs": [
        {
          "internalType": "bool",
          "name": "",
          "type": "bool"
        }
      ],
      "stateMutability": "view",
      "type": "function"
    },
    {
      "inputs": [],
      "name": "isPaused",
      "outputs": [
        {
          "internalType": "bool",
          "name": "",
          "type": "bool"
        }
      ],
      "stateMutability": "view",
      "type": "function"
    },
    {
      "inputs": [
        {
          "internalType": "address",
          "name": "",
          "type": "address"
        }
      ],
      "name": "lastClaimAt",
      "outputs": [
        {
          "internalType": "uint256",
          "name": "",
          "type": "uint256"
        }
      ],
      "stateMutability": "view",
      "type": "function"
    },
    {
      "inputs": [
        {
          "internalType": "address",
          "name": "user",
          "type": "address"
        }
      ],
      "name": "remainingAllowance",
      "outputs": [
        {
          "internalType": "uint256",
          "name": "",
          "type": "uint256"
        }
      ],
      "stateMutability": "view",
      "type": "function"
    },
    {
      "inputs": [],
      "name": "requestTokens",
      "outputs": [],
      "stateMutability": "nonpayable",
      "type": "function"
    },
    {
      "inputs": [
        {
          "internalType": "bool",
          "name": "paused_",
          "type": "bool"
        }
      ],
      "name": "setPaused",
      "outputs": [],
      "stateMutability": "nonpayable",
      "type": "function"
    },
    {
      "inputs": [],
      "name": "token",
      "outputs": [
        {
          "internalType": "contract FaucetToken",
          "name": "",
          "type": "address"
        }
      ],
      "stateMutability": "view",
      "type": "function"
    },
    {
      "inputs": [
        {
          "internalType": "address",
          "name": "",
          "type": "address"
        }
      ],
      "name": "totalClaimed",
      "outputs": [
        {
          "internalType": "uint256",
          "name": "",
          "type": "uint256"
        }
      ],
      "stateMutability": "view",
      "type": "function"
    }
  ],
  "bytecode": "0x60a060405234801561001057600080fd5b50604051610e48380380610e4883398181016040528101906100329190610129565b8073ffffffffffffffffffffffffffffffffffffffff1660808173ffffffffffffffffffffffffffffffffffffffff1681525050336000806101000a81548173ffffffffffffffffffffffffffffffffffffffff021916908373ffffffffffffffffffffffffffffffffffffffff16021790555060008060146101000a81548160ff02191690831515021790555050610156565b600080fd5b600073ffffffffffffffffffffffffffffffffffffffff82169050919050565b60006100f6826100cb565b9050919050565b610106816100eb565b811461011157600080fd5b50565b600081519050610123816100fd565b92915050565b60006020828403121561013f5761013e6100c6565b5b600061014d84828501610114565b91505092915050565b608051610cd0610178600039600081816104de01526107d70152610cd06000f3fe608060405234801561001057600080fd5b50600436106100b45760003560e01c8063bf3506c111610071578063bf3506c114610169578063e362b4f714610199578063ef5d9ae8146101b7578063f357df6d146101e7578063f851a44014610217578063fc0c546a14610235576100b4565b806303822d3b146100b957806316c38b3c146100e9578063359cf2b714610105578063766976401461010f5780637d2632451461012d578063b187bd261461014b575b600080fd5b6100d360048036038101906100ce919061085c565b610253565b6040516100e091906108a2565b60405180910390f35b61010360048036038101906100fe91906108f5565b61026b565b005b61010d61034d565b005b6101176105cd565b60405161012491906108a2565b60405180910390f35b6101356105da565b60405161014291906108a2565b60405180910390f35b6101536105e1565b6040516101609190610931565b60405180910390f35b610183600480360381019061017e919061085c565b6105f7565b6040516101909190610931565b60405180910390f35b6101a16106d6565b6040516101ae91906108a2565b60405180910390f35b6101d160048036038101906101cc919061085c565b6106e3565b6040516101de91906108a2565b60405180910390f35b61020160048036038101906101fc919061085c565b6106fb565b60405161020e91906108a2565b60405180910390f35b61021f6107b1565b60405161022c919061095b565b60405180910390f35b61023d6107d5565b60405161024a91906109d5565b60405180910390f35b60016020528060005260406000206000915090505481565b60008054906101000a900473ffffffffffffffffffffffffffffffffffffffff1673ffffffffffffffffffffffffffffffffffffffff163373ffffffffffffffffffffffffffffffffffffffff16146102f9576040517f08c379a00000000000000000000000000000000000000000000000000000000081526004016102f090610a4d565b60405180910390fd5b80600060146101000a81548160ff0219169083151502179055507f50cfd8deb0b293676ae69355a9eed053a00f81d3bd6a0ae4dc082629e6476f7f816040516103429190610931565b60405180910390a150565b600060149054906101000a900460ff161561039d576040517f08c379a000000000000000000000000000000000000000000000000000000000815260040161039490610ab9565b60405180910390fd5b6103a6336105f7565b6103e5576040517f08c379a00000000000000000000000000000000000000000000000000000000081526004016103dc90610b25565b60405180910390fd5b6802b5e3af16b18800006103f8336106fb565b1015610439576040517f08c379a000000000000000000000000000000000000000000000000000000000815260040161043090610b91565b60405180910390fd5b42600160003373ffffffffffffffffffffffffffffffffffffffff1673ffffffffffffffffffffffffffffffffffffffff168152602001908152602001600020819055506802b5e3af16b1880000600260003373ffffffffffffffffffffffffffffffffffffffff1673ffffffffffffffffffffffffffffffffffffffff16815260200190815260200160002060008282546104d59190610be0565b925050819055507f000000000000000000000000000000000000000000000000000000000000000073ffffffffffffffffffffffffffffffffffffffff166340c10f19336802b5e3af16b18800006040518363ffffffff1660e01b8152600401610540929190610c14565b600060405180830381600087803b15801561055a57600080fd5b505af115801561056e573d6000803e3d6000fd5b505050503373ffffffffffffffffffffffffffffffffffffffff167f9923b4306c6c030f2bdfbf156517d5983b87e15b96176da122cd4f2effa4ba7b6802b5e3af16b1880000426040516105c3929190610c3d565b60405180910390a2565b6802b5e3af16b188000081565b6201518081565b60008060149054906101000a900460ff16905090565b60008060149054906101000a900460ff161561061657600090506106d1565b62015180600160008473ffffffffffffffffffffffffffffffffffffffff1673ffffffffffffffffffffffffffffffffffffffff168152602001908152602001600020546106649190610be0565b42101561067457600090506106d1565b681b1ae4d6e2ef500000600260008473ffffffffffffffffffffffffffffffffffffffff1673ffffffffffffffffffffffffffffffffffffffff16815260200190815260200160002054106106cc57600090506106d1565b600190505b919050565b681b1ae4d6e2ef50000081565b60026020528060005260406000206000915090505481565b6000681b1ae4d6e2ef500000600260008473ffffffffffffffffffffffffffffffffffffffff1673ffffffffffffffffffffffffffffffffffffffff168152602001908152602001600020541061075557600090506107ac565b600260008373ffffffffffffffffffffffffffffffffffffffff1673ffffffffffffffffffffffffffffffffffffffff16815260200190815260200160002054681b1ae4d6e2ef5000006107a99190610c66565b90505b919050565b60008054906101000a900473ffffffffffffffffffffffffffffffffffffffff1681565b7f000000000000000000000000000000000000000000000000000000000000000081565b600080fd5b600073ffffffffffffffffffffffffffffffffffffffff82169050919050565b6000610829826107fe565b9050919050565b6108398161081e565b811461084457600080fd5b50565b60008135905061085681610830565b92915050565b600060208284031215610872576108716107f9565b5b600061088084828501610847565b91505092915050565b6000819050919050565b61089c81610889565b82525050565b60006020820190506108b76000830184610893565b92915050565b60008115159050919050565b6108d2816108bd565b81146108dd57600080fd5b50565b6000813590506108ef816108c9565b92915050565b60006020828403121561090b5761090a6107f9565b5b6000610919848285016108e0565b91505092915050565b61092b816108bd565b82525050565b60006020820190506109466000830184610922565b92915050565b6109558161081e565b82525050565b6000602082019050610970600083018461094c565b92915050565b6000819050919050565b600061099b610996610991846107fe565b610976565b6107fe565b9050919050565b60006109ad82610980565b9050919050565b60006109bf826109a2565b9050919050565b6109cf816109b4565b82525050565b60006020820190506109ea60008301846109c6565b92915050565b600082825260208201905092915050565b7f4f6e6c792061646d696e00000000000000000000000000000000000000000000600082015250565b6000610a37600a836109f0565b9150610a4282610a01565b602082019050919050565b60006020820190508181036000830152610a6681610a2a565b9050919050565b7f4661756365742069732070617573656400000000000000000000000000000000600082015250565b6000610aa36010836109f0565b9150610aae82610a6d565b602082019050919050565b60006020820190508181036000830152610ad281610a96565b9050919050565b7f4e6f7420656c696769626c6520746f20636c61696d0000000000000000000000600082015250565b6000610b0f6015836109f0565b9150610b1a82610ad9565b602082019050919050565b60006020820190508181036000830152610b3e81610b02565b9050919050565b7f4c69666574696d6520616c6c6f77616e63652065786365656465640000000000600082015250565b6000610b7b601b836109f0565b9150610b8682610b45565b602082019050919050565b60006020820190508181036000830152610baa81610b6e565b9050919050565b7f4e487b7100000000000000000000000000000000000000000000000000000000600052601160045260246000fd5b6000610beb82610889565b9150610bf683610889565b9250828201905080821115610c0e57610c0d610bb1565b5b92915050565b6000604082019050610c29600083018561094c565b610c366020830184610893565b9392505050565b6000604082019050610c526000830185610893565b610c5f6020830184610893565b9392505050565b6000610c7182610889565b9150610c7c83610889565b9250828203905081811115610c9457610c93610bb1565b5b9291505056fea2646970667358221220812414adc171663b99e32cbb91ae2bba812716322c43da5269cb67d9ff8ad30b64736f6c63430008140033",
  "linkReferences": {},
  "deployedLinkReferences": {}
}