{
  "_format": "hh-sol-artifact-1",
  "contractName": "FaucetToken",
  "sourceName": "contracts/Token.sol",
  "abi": [
    {
      "inputs": [],
      "stateMutability": "nonpayable",
      "type": "constructor"
    },
    {
      "inputs": [
        {
          "internalType": "address",
          "name": "spender",
          "type": "address"
        },
        {
          "internalType": "uint256",
          "name": "allowance",
          "type": "uint256"
        },
        {
          "internalType": "uint256",
          "name": "needed",
          "type": "uint256"
        }
      ],
      "name": "ERC20InsufficientAllowance",
      "type": "error"
    },
    {
      "inputs": [
        {
          "internalType": "address",
          "name": "sender",
          "type": "address"
        },
        {
          "internalType": "uint256",
          "name": "balance",
          "type": "uint256"
        },
        {
          "internalType": "uint256",
          "name": "needed",
          "type": "uint256"
        }
      ],
      "name": "ERC20InsufficientBalance",
      "type": "error"
    },
    {
      "inputs": [
        {
          "internalType": "address",
          "name": "approver",
          "type": "address"
        }
      ],
      "name": "ERC20InvalidApprover",
      "type": "error"
    },
    {
      "inputs": [
        {
          "internalType": "address",
          "name": "receiver",
          "type": "address"
        }
      ],
      "name": "ERC20InvalidReceiver",
      "type": "error"
    },
    {
      "inputs": [
        {
          "internalType": "address",
          "name": "sender",
          "type": "address"
        }
      ],
      "name": "ERC20InvalidSender",
      "type": "error"
    },
    {
      "inputs": [
        {
          "internalType": "address",
          "name": "spender",
          "type": "address"
        }
      ],
      "name": "ERC20InvalidSpender",
      "type": "error"
    },
    {
      "anonymous": false,
      "inputs": [
        {
          "indexed": true,
          "internalType": "address",
          "name": "owner",
          "type": "address"
        },
        {
          "indexed": true,
          "internalType": "address",
          "name": "spender",
          "type": "address"
        },
        {
          "indexed": false,
          "internalType": "uint256",
          "name": "value",
          "type": "uint256"
        }
      ],
      "name": "Approval",
      "type": "event"
    },
    {
      "anonymous": false,
      "inputs": [
        {
          "indexed": true,
          "internalType": "address",
          "name": "from",
          "type": "address"
        },
        {
          "indexed": true,
          "internalType": "address",
          "name": "to",
          "type": "address"
        },
        {
          "indexed": false,
          "internalType": "uint256",
          "name": "value",
          "type": "uint256"
        }
      ],
      "name": "Transfer",
      "type": "event"
    },
    {
      "inputs": [],
      "name": "MAX_SUPPLY",
      "outputs": [
        {
          "internalType": "uint256",
          "name": "",
          "type": "uint256"
        }
      ],
      "stateMutability": "view",
      "type": "function"
    },
    {
      "inputs": [],
      "name": "admin",
      "outputs": [
        {
          "internalType": "address",
          "name": "",
          "type": "address"
        }
      ],
      "stateMutability": "view",
      "type": "function"
    },
    {
      "inputs": [
        {
          "internalType": "address",
          "name": "owner",
          "type": "address"
        },
        {
          "internalType": "address",
          "name": "spender",
          "type": "address"
        }
      ],
      "name": "allowance",
      "outputs": [
        {
          "internalType": "uint256",
          "name": "",
          "type": "uint256"
        }
      ],
      "stateMutability": "view",
      "type": "function"
    },
    {
      "inputs": [
        {
          "internalType": "address",
          "name": "spender",
          "type": "address"
        },
        {
          "internalType": "uint256",
          "name": "value",
          "type": "uint256"
        }
      ],
      "name": "approve",
      "outputs": [
        {
          "internalType": "bool",
          "name": "",
          "type": "bool"
        }
      ],
      "stateMutability": "nonpayable",
      "type": "function"
    },
    {
      "inputs": [
        {
          "internalType": "address",
          "name": "account",
          "type": "address"
        }
      ],
      "name": "balanceOf",
      "outputs": [
        {
          "internalType": "uint256",
          "name": "",
          "type": "uint256"
        }
      ],
      "stateMutability": "view",
      "type": "function"
    },
    {
      "inputs": [],
      "name": "decimals",
      "outputs": [
        {
          "internalType": "uint8",
          "name": "",
          "type": "uint8"
        }
      ],
      "stateMutability": "view",
      "type": "function"
    },
    {
      "inputs": [],
      "name": "faucet",
      "outputs": [
        {
          "internalType": "address",
          "name": "",
          "type": "address"
        }
      ],
      "stateMutability": "view",
      "type": "function"
    },
    {
      "inputs": [
        {
          "internalType": "address",
          "name": "to",
          "type": "address"
        },
        {
          "internalType": "uint256",
          "name": "amount",
          "type": "uint256"
        }
      ],
      "name": "mint",
      "outputs": [],
      "stateMutability": "nonpayable",
      "type": "function"
    },
    {
      "inputs": [],
      "name": "name",
      "outputs": [
        {
          "internalType": "string",
          "name": "",
          "type": "string"
        }
      ],
      "stateMutability": "view",
      "type": "function"
    },
    {
      "inputs": [
        {
          "internalType": "address",
          "name": "_faucet",
          "type": "address"
        }
      ],
      "name": "setFaucet",
      "outputs": [],
      "stateMutability": "nonpayable",
      "type": "function"
    },
    {
      "inputs": [],
      "name": "symbol",
      "outputs": [
        {
          "internalType": "string",
          "name": "",
          "type": "string"
        }
      ],
      "stateMutability": "view",
      "type": "function"
    },
    {
      "inputs": [],
      "name": "totalSupply",
      "outputs": [
        {
          "internalType": "uint256",
          "name": "",
          "type": "uint256"
        }
      ],
      "stateMutability": "view",
      "type": "function"
    },
    {
      "inputs": [
        {
          "internalType": "address",
          "name": "to",
          "type": "address"
        },
        {
          "internalType": "uint256",
          "name": "value",
          "type": "uint256"
        }
      ],
      "name": "transfer",
      "outputs": [
        {
          "internalType": "bool",
          "name": "",
          "type": "bool"
        }
      ],
      "stateMutability": "nonpayable",
      "type": "function"
    },
    {
      "inputs": [
        {
          "internalType": "address",
          "name": "from",
          "type": "address"
        },
        {
          "internalType": "address",
          "name": "to",
          "type": "address"
        },
        {
          "internalType": "uint256",
          "name": "value",
          "type": "uint256"
        }
      ],
      "name": "transferFrom",
      "outputs": [
        {
          "internalType": "bool",
          "name": "",
          "type": "bool"
        }
      ],
      "stateMutability": "nonpayable",
      "type": "function"
    }
  ],
  "bytecode": "0x60806040523480156200001157600080fd5b506040518060400160405280600c81526020017f46617563657420546f6b656e00000000000000000000000000000000000000008152506040518060400160405280600381526020017f46544b000000000000000000000000000000000000000000000000000000000081525081600390816200008f919062000365565b508060049081620000a1919062000365565b50505033600660006101000a81548173ffffffffffffffffffffffffffffffffffffffff021916908373ffffffffffffffffffffffffffffffffffffffff1602179055506200044c565b600081519050919050565b7f4e487b7100000000000000000000000000000000000000000000000000000000600052604160045260246000fd5b7f4e487b7100000000000000000000000000000000000000000000000000000000600052602260045260246000fd5b600060028204905060018216806200016d57607f821691505b60208210810362000183576200018262000125565b5b50919050565b60008190508160005260206000209050919050565b60006020601f8301049050919050565b600082821b905092915050565b600060088302620001ed7fffffffffffffffffffffffffffffffffffffffffffffffffffffffffffffffff82620001ae565b620001f98683620001ae565b95508019841693508086168417925050509392505050565b6000819050919050565b6000819050919050565b600062000246620002406200023a8462000211565b6200021b565b62000211565b9050919050565b6000819050919050565b620002628362000225565b6200027a62000271826200024d565b848454620001bb565b825550505050565b600090565b6200029162000282565b6200029e81848462000257565b505050565b5b81811015620002c657620002ba60008262000287565b600181019050620002a4565b5050565b601f8211156200031557620002df8162000189565b620002ea846200019e565b81016020851015620002fa578190505b6200031262000309856200019e565b830182620002a3565b50505b505050565b600082821c905092915050565b60006200033a600019846008026200031a565b1980831691505092915050565b600062000355838362000327565b9150826002028217905092915050565b6200037082620000eb565b67ffffffffffffffff8111156200038c576200038b620000f6565b5b62000398825462000154565b620003a5828285620002ca565b600060209050601f831160018114620003dd5760008415620003c8578287015190505b620003d4858262000347565b86555062000444565b601f198416620003ed8662000189565b60005b828110156200041757848901518255600182019150602085019450602081019050620003f0565b8683101562000437578489015162000433601f89168262000327565b8355505b6001600288020188555050505b505050505050565b61142d806200045c6000396000f3fe608060405234801561001057600080fd5b50600436106100ea5760003560e01c806370a082311161008c578063d8b31c7711610066578063d8b31c7714610261578063dd62ed3e1461027d578063de5f72fd146102ad578063f851a440146102cb576100ea565b806370a08231146101e357806395d89b4114610213578063a9059cbb14610231576100ea565b806323b872dd116100c857806323b872dd1461015b578063313ce5671461018b57806332cb6b0c146101a957806340c10f19146101c7576100ea565b806306fdde03146100ef578063095ea7b31461010d57806318160ddd1461013d575b600080fd5b6100f76102e9565b6040516101049190610ed1565b60405180910390f35b61012760048036038101906101229190610f8c565b61037b565b6040516101349190610fe7565b60405180910390f35b61014561039e565b6040516101529190611011565b60405180910390f35b6101756004803603810190610170919061102c565b6103a8565b6040516101829190610fe7565b60405180910390f35b6101936103d7565b6040516101a0919061109b565b60405180910390f35b6101b16103e0565b6040516101be9190611011565b60405180910390f35b6101e160048036038101906101dc9190610f8c565b6103ee565b005b6101fd60048036038101906101f891906110b6565b6104eb565b60405161020a9190611011565b60405180910390f35b61021b610533565b6040516102289190610ed1565b60405180910390f35b61024b60048036038101906102469190610f8c565b6105c5565b6040516102589190610fe7565b60405180910390f35b61027b600480360381019061027691906110b6565b6105e8565b005b610297600480360381019061029291906110e3565b61074d565b6040516102a49190611011565b60405180910390f35b6102b56107d4565b6040516102c29190611132565b60405180910390f35b6102d36107fa565b6040516102e09190611132565b60405180910390f35b6060600380546102f89061117c565b80601f01602080910402602001604051908101604052809291908181526020018280546103249061117c565b80156103715780601f1061034657610100808354040283529160200191610371565b820191906000526020600020905b81548152906001019060200180831161035457829003601f168201915b5050505050905090565b600080610386610820565b9050610393818585610828565b600191505092915050565b6000600254905090565b6000806103b3610820565b90506103c085828561083a565b6103cb8585856108cf565b60019150509392505050565b60006012905090565b69d3c21bcecceda100000081565b600560009054906101000a900473ffffffffffffffffffffffffffffffffffffffff1673ffffffffffffffffffffffffffffffffffffffff163373ffffffffffffffffffffffffffffffffffffffff161461047e576040517f08c379a0000000000000000000000000000000000000000000000000000000008152600401610475906111f9565b60405180910390fd5b69d3c21bcecceda10000008161049261039e565b61049c9190611248565b11156104dd576040517f08c379a00000000000000000000000000000000000000000000000000000000081526004016104d4906112c8565b60405180910390fd5b6104e782826109c3565b5050565b60008060008373ffffffffffffffffffffffffffffffffffffffff1673ffffffffffffffffffffffffffffffffffffffff168152602001908152602001600020549050919050565b6060600480546105429061117c565b80601f016020809104026020016040519081016040528092919081815260200182805461056e9061117c565b80156105bb5780601f10610590576101008083540402835291602001916105bb565b820191906000526020600020905b81548152906001019060200180831161059e57829003601f168201915b5050505050905090565b6000806105d0610820565b90506105dd8185856108cf565b600191505092915050565b600660009054906101000a900473ffffffffffffffffffffffffffffffffffffffff1673ffffffffffffffffffffffffffffffffffffffff163373ffffffffffffffffffffffffffffffffffffffff1614610678576040517f08c379a000000000000000000000000000000000000000000000000000000000815260040161066f90611334565b60405180910390fd5b600073ffffffffffffffffffffffffffffffffffffffff16600560009054906101000a900473ffffffffffffffffffffffffffffffffffffffff1673ffffffffffffffffffffffffffffffffffffffff1614610709576040517f08c379a0000000000000000000000000000000000000000000000000000000008152600401610700906113a0565b60405180910390fd5b80600560006101000a81548173ffffffffffffffffffffffffffffffffffffffff021916908373ffffffffffffffffffffffffffffffffffffffff16021790555050565b6000600160008473ffffffffffffffffffffffffffffffffffffffff1673ffffffffffffffffffffffffffffffffffffffff16815260200190815260200160002060008373ffffffffffffffffffffffffffffffffffffffff1673ffffffffffffffffffffffffffffffffffffffff16815260200190815260200160002054905092915050565b600560009054906101000a900473ffffffffffffffffffffffffffffffffffffffff1681565b600660009054906101000a900473ffffffffffffffffffffffffffffffffffffffff1681565b600033905090565b6108358383836001610a45565b505050565b6000610846848461074d565b90507fffffffffffffffffffffffffffffffffffffffffffffffffffffffffffffffff8110156108c957818110156108b9578281836040517ffb8f41b20000000000000000000000000000000000000000000000000000000081526004016108b0939291906113c0565b60405180910390fd5b6108c884848484036000610a45565b5b50505050565b600073ffffffffffffffffffffffffffffffffffffffff168373ffffffffffffffffffffffffffffffffffffffff16036109415760006040517f96c6fd1e0000000000000000000000000000000000000000000000000000000081526004016109389190611132565b60405180910390fd5b600073ffffffffffffffffffffffffffffffffffffffff168273ffffffffffffffffffffffffffffffffffffffff16036109b35760006040517fec442f050000000000000000000000000000000000000000000000000000000081526004016109aa9190611132565b60405180910390fd5b6109be838383610c1c565b505050565b600073ffffffffffffffffffffffffffffffffffffffff168273ffffffffffffffffffffffffffffffffffffffff1603610a355760006040517fec442f05000000000000000000000000000000000000000000000000000000008152600401610a2c9190611132565b60405180910390fd5b610a4160008383610c1c565b5050565b600073ffffffffffffffffffffffffffffffffffffffff168473ffffffffffffffffffffffffffffffffffffffff1603610ab75760006040517fe602df05000000000000000000000000000000000000000000000000000000008152600401610aae9190611132565b60405180910390fd5b600073ffffffffffffffffffffffffffffffffffffffff168373ffffffffffffffffffffffffffffffffffffffff1603610b295760006040517f94280d62000000000000000000000000000000000000000000000000000000008152600401610b209190611132565b60405180910390fd5b81600160008673ffffffffffffffffffffffffffffffffffffffff1673ffffffffffffffffffffffffffffffffffffffff16815260200190815260200160002060008573ffffffffffffffffffffffffffffffffffffffff1673ffffffffffffffffffffffffffffffffffffffff168152602001908152602001600020819055508015610c16578273ffffffffffffffffffffffffffffffffffffffff168473ffffffffffffffffffffffffffffffffffffffff167f8c5be1e5ebec7d5bd14f71427d1e84f3dd0314c0f7b2291e5b200ac8c7c3b92584604051610c0d9190611011565b60405180910390a35b50505050565b600073ffffffffffffffffffffffffffffffffffffffff168373ffffffffffffffffffffffffffffffffffffffff1603610c6e578060026000828254610c629190611248565b92505081905550610d41565b60008060008573ffffffffffffffffffffffffffffffffffffffff1673ffffffffffffffffffffffffffffffffffffffff16815260200190815260200160002054905081811015610cfa578381836040517fe450d38c000000000000000000000000000000000000000000000000000000008152600401610cf1939291906113c0565b60405180910390fd5b8181036000808673ffffffffffffffffffffffffffffffffffffffff1673ffffffffffffffffffffffffffffffffffffffff16815260200190815260200160002081905550505b600073ffffffffffffffffffffffffffffffffffffffff168273ffffffffffffffffffffffffffffffffffffffff1603610d8a5780600260008282540392505081905550610dd7565b806000808473ffffffffffffffffffffffffffffffffffffffff1673ffffffffffffffffffffffffffffffffffffffff168152602001908152602001600020600082825401925050819055505b8173ffffffffffffffffffffffffffffffffffffffff168373ffffffffffffffffffffffffffffffffffffffff167fddf252ad1be2c89b69c2b068fc378daa952ba7f163c4a11628f55a4df523b3ef83604051610e349190611011565b60405180910390a3505050565b600081519050919050565b600082825260208201905092915050565b60005b83811015610e7b578082015181840152602081019050610e60565b60008484015250505050565b6000601f19601f8301169050919050565b6000610ea382610e41565b610ead8185610e4c565b9350610ebd818560208601610e5d565b610ec681610e87565b840191505092915050565b60006020820190508181036000830152610eeb8184610e98565b905092915050565b600080fd5b600073ffffffffffffffffffffffffffffffffffffffff82169050919050565b6000610f2382610ef8565b9050919050565b610f3381610f18565b8114610f3e57600080fd5b50565b600081359050610f5081610f2a565b92915050565b6000819050919050565b610f6981610f56565b8114610f7457600080fd5b50565b600081359050610f8681610f60565b92915050565b60008060408385031215610fa357610fa2610ef3565b5b6000610fb185828601610f41565b9250506020610fc285828601610f77565b9150509250929050565b60008115159050919050565b610fe181610fcc565b82525050565b6000602082019050610ffc6000830184610fd8565b92915050565b61100b81610f56565b82525050565b60006020820190506110266000830184611002565b92915050565b60008060006060848603121561104557611044610ef3565b5b600061105386828701610f41565b935050602061106486828701610f41565b925050604061107586828701610f77565b9150509250925092565b600060ff82169050919050565b6110958161107f565b82525050565b60006020820190506110b0600083018461108c565b92915050565b6000602082840312156110cc576110cb610ef3565b5b60006110da84828501610f41565b91505092915050565b600080604083850312156110fa576110f9610ef3565b5b600061110885828601610f41565b925050602061111985828601610f41565b9150509250929050565b61112c81610f18565b82525050565b60006020820190506111476000830184611123565b92915050565b7f4e487b7100000000000000000000000000000000000000000000000000000000600052602260045260246000fd5b6000600282049050600182168061119457607f821691505b6020821081036111a7576111a661114d565b5b50919050565b7f4f6e6c79206661756365742063616e206d696e74000000000000000000000000600082015250565b60006111e3601483610e4c565b91506111ee826111ad565b602082019050919050565b60006020820190508181036000830152611212816111d6565b9050919050565b7f4e487b7100000000000000000000000000000000000000000000000000000000600052601160045260246000fd5b600061125382610f56565b915061125e83610f56565b925082820190508082111561127657611275611219565b5b92915050565b7f4d617820737570706c7920657863656564656400000000000000000000000000600082015250565b60006112b2601383610e4c565b91506112bd8261127c565b602082019050919050565b600060208201905081810360008301526112e1816112a5565b9050919050565b7f4f6e6c792061646d696e00000000000000000000000000000000000000000000600082015250565b600061131e600a83610e4c565b9150611329826112e8565b602082019050919050565b6000602082019050818103600083015261134d81611311565b9050919050565b7f46617563657420616c7265616479207365740000000000000000000000000000600082015250565b600061138a601283610e4c565b915061139582611354565b602082019050919050565b600060208201905081810360008301526113b98161137d565b9050919050565b60006060820190506113d56000830186611123565b6113e26020830185611002565b6113ef6040830184611002565b94935050505056fea26469706673582212209bf9e5e158912f04b2ae9039109519224e08c098b601cc8dfe90121b259864b564736f6c63430008140033",
  "linkReferences": {},
  "deployedLinkReferences": {}
}